{
  "_format": "hh-sol-artifact-1",
  "contractName": "Certificate",
  "sourceName": "contracts/certificate.sol",
  "abi": [
    {
      "inputs": [],
      "stateMutability": "nonpayable",
      "type": "constructor"
    },
    {
      "inputs": [
        {
          "internalType": "address",
          "name": "sender",
          "type": "address"
        },
        {
          "internalType": "uint256",
          "name": "tokenId",
          "type": "uint256"
        },
        {
          "internalType": "address",
          "name": "owner",
          "type": "address"
        }
      ],
      "name": "ERC721IncorrectOwner",
      "type": "error"
    },
    {
      "inputs": [
        {
          "internalType": "address",
          "name": "operator",
          "type": "address"
        },
        {
          "internalType": "uint256",
          "name": "tokenId",
          "type": "uint256"
        }
      ],
      "name": "ERC721InsufficientApproval",
      "type": "error"
    },
    {
      "inputs": [
        {
          "internalType": "address",
          "name": "approver",
          "type": "address"
        }
      ],
      "name": "ERC721InvalidApprover",
      "type": "error"
    },
    {
      "inputs": [
        {
          "internalType": "address",
          "name": "operator",
          "type": "address"
        }
      ],
      "name": "ERC721InvalidOperator",
      "type": "error"
    },
    {
      "inputs": [
        {
          "internalType": "address",
          "name": "owner",
          "type": "address"
        }
      ],
      "name": "ERC721InvalidOwner",
      "type": "error"
    },
    {
      "inputs": [
        {
          "internalType": "address",
          "name": "receiver",
          "type": "address"
        }
      ],
      "name": "ERC721InvalidReceiver",
      "type": "error"
    },
    {
      "inputs": [
        {
          "internalType": "address",
          "name": "sender",
          "type": "address"
        }
      ],
      "name": "ERC721InvalidSender",
      "type": "error"
    },
    {
      "inputs": [
        {
          "internalType": "uint256",
          "name": "tokenId",
          "type": "uint256"
        }
      ],
      "name": "ERC721NonexistentToken",
      "type": "error"
    },
    {
      "anonymous": false,
      "inputs": [
        {
          "indexed": true,
          "internalType": "address",
          "name": "owner",
          "type": "address"
        },
        {
          "indexed": true,
          "internalType": "address",
          "name": "approved",
          "type": "address"
        },
        {
          "indexed": true,
          "internalType": "uint256",
          "name": "tokenId",
          "type": "uint256"
        }
      ],
      "name": "Approval",
      "type": "event"
    },
    {
      "anonymous": false,
      "inputs": [
        {
          "indexed": true,
          "internalType": "address",
          "name": "owner",
          "type": "address"
        },
        {
          "indexed": true,
          "internalType": "address",
          "name": "operator",
          "type": "address"
        },
        {
          "indexed": false,
          "internalType": "bool",
          "name": "approved",
          "type": "bool"
        }
      ],
      "name": "ApprovalForAll",
      "type": "event"
    },
    {
      "anonymous": false,
      "inputs": [
        {
          "indexed": false,
          "internalType": "uint256",
          "name": "_fromTokenId",
          "type": "uint256"
        },
        {
          "indexed": false,
          "internalType": "uint256",
          "name": "_toTokenId",
          "type": "uint256"
        }
      ],
      "name": "BatchMetadataUpdate",
      "type": "event"
    },
    {
      "anonymous": false,
      "inputs": [
        {
          "indexed": false,
          "internalType": "uint256",
          "name": "_tokenId",
          "type": "uint256"
        }
      ],
      "name": "MetadataUpdate",
      "type": "event"
    },
    {
      "anonymous": false,
      "inputs": [
        {
          "indexed": true,
          "internalType": "address",
          "name": "from",
          "type": "address"
        },
        {
          "indexed": true,
          "internalType": "address",
          "name": "to",
          "type": "address"
        },
        {
          "indexed": true,
          "internalType": "uint256",
          "name": "tokenId",
          "type": "uint256"
        }
      ],
      "name": "Transfer",
      "type": "event"
    },
    {
      "inputs": [
        {
          "internalType": "address",
          "name": "to",
          "type": "address"
        },
        {
          "internalType": "uint256",
          "name": "tokenId",
          "type": "uint256"
        }
      ],
      "name": "approve",
      "outputs": [],
      "stateMutability": "nonpayable",
      "type": "function"
    },
    {
      "inputs": [
        {
          "internalType": "address",
          "name": "owner",
          "type": "address"
        }
      ],
      "name": "balanceOf",
      "outputs": [
        {
          "internalType": "uint256",
          "name": "",
          "type": "uint256"
        }
      ],
      "stateMutability": "view",
      "type": "function"
    },
    {
      "inputs": [
        {
          "internalType": "uint256",
          "name": "tokenId",
          "type": "uint256"
        }
      ],
      "name": "getApproved",
      "outputs": [
        {
          "internalType": "address",
          "name": "",
          "type": "address"
        }
      ],
      "stateMutability": "view",
      "type": "function"
    },
    {
      "inputs": [
        {
          "internalType": "string",
          "name": "identityNumber",
          "type": "string"
        }
      ],
      "name": "getCertificateURI",
      "outputs": [
        {
          "components": [
            {
              "internalType": "string",
              "name": "name",
              "type": "string"
            },
            {
              "internalType": "string",
              "name": "id",
              "type": "string"
            },
            {
              "internalType": "string",
              "name": "awardDate",
              "type": "string"
            },
            {
              "internalType": "string",
              "name": "programme",
              "type": "string"
            },
            {
              "internalType": "string",
              "name": "tokenURI",
              "type": "string"
            }
          ],
          "internalType": "struct Certificate.Cert",
          "name": "",
          "type": "tuple"
        }
      ],
      "stateMutability": "view",
      "type": "function"
    },
    {
      "inputs": [
        {
          "internalType": "address",
          "name": "owner",
          "type": "address"
        },
        {
          "internalType": "address",
          "name": "operator",
          "type": "address"
        }
      ],
      "name": "isApprovedForAll",
      "outputs": [
        {
          "internalType": "bool",
          "name": "",
          "type": "bool"
        }
      ],
      "stateMutability": "view",
      "type": "function"
    },
    {
      "inputs": [
        {
          "internalType": "string",
          "name": "tokenURI",
          "type": "string"
        },
        {
          "internalType": "string",
          "name": "_name",
          "type": "string"
        },
        {
          "internalType": "string",
          "name": "_identityNumber",
          "type": "string"
        },
        {
          "internalType": "string",
          "name": "_awardDate",
          "type": "string"
        },
        {
          "internalType": "string",
          "name": "_programme",
          "type": "string"
        }
      ],
      "name": "mint",
      "outputs": [
        {
          "internalType": "uint256",
          "name": "",
          "type": "uint256"
        }
      ],
      "stateMutability": "nonpayable",
      "type": "function"
    },
    {
      "inputs": [],
      "name": "name",
      "outputs": [
        {
          "internalType": "string",
          "name": "",
          "type": "string"
        }
      ],
      "stateMutability": "view",
      "type": "function"
    },
    {
      "inputs": [],
      "name": "owner",
      "outputs": [
        {
          "internalType": "address",
          "name": "",
          "type": "address"
        }
      ],
      "stateMutability": "view",
      "type": "function"
    },
    {
      "inputs": [
        {
          "internalType": "uint256",
          "name": "tokenId",
          "type": "uint256"
        }
      ],
      "name": "ownerOf",
      "outputs": [
        {
          "internalType": "address",
          "name": "",
          "type": "address"
        }
      ],
      "stateMutability": "view",
      "type": "function"
    },
    {
      "inputs": [
        {
          "internalType": "address",
          "name": "from",
          "type": "address"
        },
        {
          "internalType": "address",
          "name": "to",
          "type": "address"
        },
        {
          "internalType": "uint256",
          "name": "tokenId",
          "type": "uint256"
        }
      ],
      "name": "safeTransferFrom",
      "outputs": [],
      "stateMutability": "nonpayable",
      "type": "function"
    },
    {
      "inputs": [
        {
          "internalType": "address",
          "name": "from",
          "type": "address"
        },
        {
          "internalType": "address",
          "name": "to",
          "type": "address"
        },
        {
          "internalType": "uint256",
          "name": "tokenId",
          "type": "uint256"
        },
        {
          "internalType": "bytes",
          "name": "data",
          "type": "bytes"
        }
      ],
      "name": "safeTransferFrom",
      "outputs": [],
      "stateMutability": "nonpayable",
      "type": "function"
    },
    {
      "inputs": [
        {
          "internalType": "address",
          "name": "operator",
          "type": "address"
        },
        {
          "internalType": "bool",
          "name": "approved",
          "type": "bool"
        }
      ],
      "name": "setApprovalForAll",
      "outputs": [],
      "stateMutability": "nonpayable",
      "type": "function"
    },
    {
      "inputs": [
        {
          "internalType": "bytes4",
          "name": "interfaceId",
          "type": "bytes4"
        }
      ],
      "name": "supportsInterface",
      "outputs": [
        {
          "internalType": "bool",
          "name": "",
          "type": "bool"
        }
      ],
      "stateMutability": "view",
      "type": "function"
    },
    {
      "inputs": [],
      "name": "symbol",
      "outputs": [
        {
          "internalType": "string",
          "name": "",
          "type": "string"
        }
      ],
      "stateMutability": "view",
      "type": "function"
    },
    {
      "inputs": [
        {
          "internalType": "uint256",
          "name": "tokenId",
          "type": "uint256"
        }
      ],
      "name": "tokenURI",
      "outputs": [
        {
          "internalType": "string",
          "name": "",
          "type": "string"
        }
      ],
      "stateMutability": "view",
      "type": "function"
    },
    {
      "inputs": [],
      "name": "totalSupply",
      "outputs": [
        {
          "internalType": "uint256",
          "name": "",
          "type": "uint256"
        }
      ],
      "stateMutability": "view",
      "type": "function"
    },
    {
      "inputs": [
        {
          "internalType": "address",
          "name": "from",
          "type": "address"
        },
        {
          "internalType": "address",
          "name": "to",
          "type": "address"
        },
        {
          "internalType": "uint256",
          "name": "tokenId",
          "type": "uint256"
        }
      ],
      "name": "transferFrom",
      "outputs": [],
      "stateMutability": "nonpayable",
      "type": "function"
    }
  ],
  "bytecode": "0x608060405260006007553480156200001657600080fd5b506040518060400160405280600b81526020017f43657274696669636174650000000000000000000000000000000000000000008152506040518060400160405280600481526020017f434552540000000000000000000000000000000000000000000000000000000081525081600090816200009491906200036a565b508060019081620000a691906200036a565b50505033600860006101000a81548173ffffffffffffffffffffffffffffffffffffffff021916908373ffffffffffffffffffffffffffffffffffffffff16021790555062000451565b600081519050919050565b7f4e487b7100000000000000000000000000000000000000000000000000000000600052604160045260246000fd5b7f4e487b7100000000000000000000000000000000000000000000000000000000600052602260045260246000fd5b600060028204905060018216806200017257607f821691505b6020821081036200018857620001876200012a565b5b50919050565b60008190508160005260206000209050919050565b60006020601f8301049050919050565b600082821b905092915050565b600060088302620001f27fffffffffffffffffffffffffffffffffffffffffffffffffffffffffffffffff82620001b3565b620001fe8683620001b3565b95508019841693508086168417925050509392505050565b6000819050919050565b6000819050919050565b60006200024b620002456200023f8462000216565b62000220565b62000216565b9050919050565b6000819050919050565b62000267836200022a565b6200027f620002768262000252565b848454620001c0565b825550505050565b600090565b6200029662000287565b620002a38184846200025c565b505050565b5b81811015620002cb57620002bf6000826200028c565b600181019050620002a9565b5050565b601f8211156200031a57620002e4816200018e565b620002ef84620001a3565b81016020851015620002ff578190505b620003176200030e85620001a3565b830182620002a8565b50505b505050565b600082821c905092915050565b60006200033f600019846008026200031f565b1980831691505092915050565b60006200035a83836200032c565b9150826002028217905092915050565b6200037582620000f0565b67ffffffffffffffff811115620003915762000390620000fb565b5b6200039d825462000159565b620003aa828285620002cf565b600060209050601f831160018114620003e25760008415620003cd578287015190505b620003d985826200034c565b86555062000449565b601f198416620003f2866200018e565b60005b828110156200041c57848901518255600182019150602085019450602081019050620003f5565b868310156200043c578489015162000438601f8916826200032c565b8355505b6001600288020188555050505b505050505050565b612cb080620004616000396000f3fe608060405234801561001057600080fd5b506004361061010b5760003560e01c80636352211e116100a257806395d89b411161007157806395d89b41146102de578063a22cb465146102fc578063b88d4fde14610318578063c87b56dd14610334578063e985e9c5146103645761010b565b80636352211e1461023057806370a082311461026057806386833e91146102905780638da5cb5b146102c05761010b565b806318160ddd116100de57806318160ddd146101aa57806323b872dd146101c857806331eb2054146101e457806342842e0e146102145761010b565b806301ffc9a71461011057806306fdde0314610140578063081812fc1461015e578063095ea7b31461018e575b600080fd5b61012a60048036038101906101259190611ddf565b610394565b6040516101379190611e27565b60405180910390f35b6101486103f5565b6040516101559190611ed2565b60405180910390f35b61017860048036038101906101739190611f2a565b610487565b6040516101859190611f98565b60405180910390f35b6101a860048036038101906101a39190611fdf565b6104a3565b005b6101b26104b9565b6040516101bf919061202e565b60405180910390f35b6101e260048036038101906101dd9190612049565b6104c3565b005b6101fe60048036038101906101f991906121d1565b6105c5565b60405161020b91906122f6565b60405180910390f35b61022e60048036038101906102299190612049565b610947565b005b61024a60048036038101906102459190611f2a565b610967565b6040516102579190611f98565b60405180910390f35b61027a60048036038101906102759190612318565b610979565b604051610287919061202e565b60405180910390f35b6102aa60048036038101906102a59190612345565b610a33565b6040516102b7919061202e565b60405180910390f35b6102c8610bc1565b6040516102d59190611f98565b60405180910390f35b6102e6610be7565b6040516102f39190611ed2565b60405180910390f35b61031660048036038101906103119190612478565b610c79565b005b610332600480360381019061032d9190612559565b610c8f565b005b61034e60048036038101906103499190611f2a565b610cac565b60405161035b9190611ed2565b60405180910390f35b61037e600480360381019061037991906125dc565b610dbf565b60405161038b9190611e27565b60405180910390f35b6000634906490660e01b7bffffffffffffffffffffffffffffffffffffffffffffffffffffffff1916827bffffffffffffffffffffffffffffffffffffffffffffffffffffffff191614806103ee57506103ed82610e53565b5b9050919050565b6060600080546104049061264b565b80601f01602080910402602001604051908101604052809291908181526020018280546104309061264b565b801561047d5780601f106104525761010080835404028352916020019161047d565b820191906000526020600020905b81548152906001019060200180831161046057829003601f168201915b5050505050905090565b600061049282610f35565b5061049c82610fbd565b9050919050565b6104b582826104b0610ffa565b611002565b5050565b6000600754905090565b600073ffffffffffffffffffffffffffffffffffffffff168273ffffffffffffffffffffffffffffffffffffffff16036105355760006040517f64a0ae9200000000000000000000000000000000000000000000000000000000815260040161052c9190611f98565b60405180910390fd5b60006105498383610544610ffa565b611014565b90508373ffffffffffffffffffffffffffffffffffffffff168173ffffffffffffffffffffffffffffffffffffffff16146105bf578382826040517f64283d7b0000000000000000000000000000000000000000000000000000000081526004016105b69392919061267c565b60405180910390fd5b50505050565b6105cd611d44565b60006009836040516105df91906126ef565b908152602001604051809103902060010180546105fb9061264b565b90501161063d576040517f08c379a000000000000000000000000000000000000000000000000000000000815260040161063490612752565b60405180910390fd5b60098260405161064d91906126ef565b90815260200160405180910390206040518060a00160405290816000820180546106769061264b565b80601f01602080910402602001604051908101604052809291908181526020018280546106a29061264b565b80156106ef5780601f106106c4576101008083540402835291602001916106ef565b820191906000526020600020905b8154815290600101906020018083116106d257829003601f168201915b505050505081526020016001820180546107089061264b565b80601f01602080910402602001604051908101604052809291908181526020018280546107349061264b565b80156107815780601f1061075657610100808354040283529160200191610781565b820191906000526020600020905b81548152906001019060200180831161076457829003601f168201915b5050505050815260200160028201805461079a9061264b565b80601f01602080910402602001604051908101604052809291908181526020018280546107c69061264b565b80156108135780601f106107e857610100808354040283529160200191610813565b820191906000526020600020905b8154815290600101906020018083116107f657829003601f168201915b5050505050815260200160038201805461082c9061264b565b80601f01602080910402602001604051908101604052809291908181526020018280546108589061264b565b80156108a55780601f1061087a576101008083540402835291602001916108a5565b820191906000526020600020905b81548152906001019060200180831161088857829003601f168201915b505050505081526020016004820180546108be9061264b565b80601f01602080910402602001604051908101604052809291908181526020018280546108ea9061264b565b80156109375780601f1061090c57610100808354040283529160200191610937565b820191906000526020600020905b81548152906001019060200180831161091a57829003601f168201915b5050505050815250509050919050565b61096283838360405180602001604052806000815250610c8f565b505050565b600061097282610f35565b9050919050565b60008073ffffffffffffffffffffffffffffffffffffffff168273ffffffffffffffffffffffffffffffffffffffff16036109ec5760006040517f89c62b640000000000000000000000000000000000000000000000000000000081526004016109e39190611f98565b60405180910390fd5b600360008373ffffffffffffffffffffffffffffffffffffffff1673ffffffffffffffffffffffffffffffffffffffff168152602001908152602001600020549050919050565b6000600860009054906101000a900473ffffffffffffffffffffffffffffffffffffffff1673ffffffffffffffffffffffffffffffffffffffff163373ffffffffffffffffffffffffffffffffffffffff1614610ac5576040517f08c379a0000000000000000000000000000000000000000000000000000000008152600401610abc906127e4565b60405180910390fd5b60076000815480929190610ad890612833565b919050555060006007549050610aee338261122e565b610af88188611327565b60006040518060a0016040528088815260200187815260200186815260200185815260200189815250905080600987604051610b3491906126ef565b90815260200160405180910390206000820151816000019081610b579190612a27565b506020820151816001019081610b6d9190612a27565b506040820151816002019081610b839190612a27565b506060820151816003019081610b999190612a27565b506080820151816004019081610baf9190612a27565b50905050819250505095945050505050565b600860009054906101000a900473ffffffffffffffffffffffffffffffffffffffff1681565b606060018054610bf69061264b565b80601f0160208091040260200160405190810160405280929190818152602001828054610c229061264b565b8015610c6f5780601f10610c4457610100808354040283529160200191610c6f565b820191906000526020600020905b815481529060010190602001808311610c5257829003601f168201915b5050505050905090565b610c8b610c84610ffa565b8383611383565b5050565b610c9a8484846104c3565b610ca6848484846114f2565b50505050565b6060610cb782610f35565b506000600660008481526020019081526020016000208054610cd89061264b565b80601f0160208091040260200160405190810160405280929190818152602001828054610d049061264b565b8015610d515780601f10610d2657610100808354040283529160200191610d51565b820191906000526020600020905b815481529060010190602001808311610d3457829003601f168201915b505050505090506000610d626116a9565b90506000815103610d77578192505050610dba565b600082511115610dac578082604051602001610d94929190612af9565b60405160208183030381529060405292505050610dba565b610db5846116c9565b925050505b919050565b6000600560008473ffffffffffffffffffffffffffffffffffffffff1673ffffffffffffffffffffffffffffffffffffffff16815260200190815260200160002060008373ffffffffffffffffffffffffffffffffffffffff1673ffffffffffffffffffffffffffffffffffffffff16815260200190815260200160002060009054906101000a900460ff16905092915050565b60007f80ac58cd000000000000000000000000000000000000000000000000000000007bffffffffffffffffffffffffffffffffffffffffffffffffffffffff1916827bffffffffffffffffffffffffffffffffffffffffffffffffffffffff19161480610f1e57507f5b5e139f000000000000000000000000000000000000000000000000000000007bffffffffffffffffffffffffffffffffffffffffffffffffffffffff1916827bffffffffffffffffffffffffffffffffffffffffffffffffffffffff1916145b80610f2e5750610f2d82611732565b5b9050919050565b600080610f418361179c565b9050600073ffffffffffffffffffffffffffffffffffffffff168173ffffffffffffffffffffffffffffffffffffffff1603610fb457826040517f7e273289000000000000000000000000000000000000000000000000000000008152600401610fab919061202e565b60405180910390fd5b80915050919050565b60006004600083815260200190815260200160002060009054906101000a900473ffffffffffffffffffffffffffffffffffffffff169050919050565b600033905090565b61100f83838360016117d9565b505050565b6000806110208461179c565b9050600073ffffffffffffffffffffffffffffffffffffffff168373ffffffffffffffffffffffffffffffffffffffff16146110625761106181848661199e565b5b600073ffffffffffffffffffffffffffffffffffffffff168173ffffffffffffffffffffffffffffffffffffffff16146110f3576110a46000856000806117d9565b6001600360008373ffffffffffffffffffffffffffffffffffffffff1673ffffffffffffffffffffffffffffffffffffffff168152602001908152602001600020600082825403925050819055505b600073ffffffffffffffffffffffffffffffffffffffff168573ffffffffffffffffffffffffffffffffffffffff1614611176576001600360008773ffffffffffffffffffffffffffffffffffffffff1673ffffffffffffffffffffffffffffffffffffffff168152602001908152602001600020600082825401925050819055505b846002600086815260200190815260200160002060006101000a81548173ffffffffffffffffffffffffffffffffffffffff021916908373ffffffffffffffffffffffffffffffffffffffff160217905550838573ffffffffffffffffffffffffffffffffffffffff168273ffffffffffffffffffffffffffffffffffffffff167fddf252ad1be2c89b69c2b068fc378daa952ba7f163c4a11628f55a4df523b3ef60405160405180910390a4809150509392505050565b600073ffffffffffffffffffffffffffffffffffffffff168273ffffffffffffffffffffffffffffffffffffffff16036112a05760006040517f64a0ae920000000000000000000000000000000000000000000000000000000081526004016112979190611f98565b60405180910390fd5b60006112ae83836000611014565b9050600073ffffffffffffffffffffffffffffffffffffffff168173ffffffffffffffffffffffffffffffffffffffff16146113225760006040517f73c6ac6e0000000000000000000000000000000000000000000000000000000081526004016113199190611f98565b60405180910390fd5b505050565b806006600084815260200190815260200160002090816113479190612a27565b507ff8e1a15aba9398e019f0b49df1a4fde98ee17ae345cb5f6b5e2c27f5033e8ce782604051611377919061202e565b60405180910390a15050565b600073ffffffffffffffffffffffffffffffffffffffff168273ffffffffffffffffffffffffffffffffffffffff16036113f457816040517f5b08ba180000000000000000000000000000000000000000000000000000000081526004016113eb9190611f98565b60405180910390fd5b80600560008573ffffffffffffffffffffffffffffffffffffffff1673ffffffffffffffffffffffffffffffffffffffff16815260200190815260200160002060008473ffffffffffffffffffffffffffffffffffffffff1673ffffffffffffffffffffffffffffffffffffffff16815260200190815260200160002060006101000a81548160ff0219169083151502179055508173ffffffffffffffffffffffffffffffffffffffff168373ffffffffffffffffffffffffffffffffffffffff167f17307eab39ab6107e8899845ad3d59bd9653f200f220920489ca2b5937696c31836040516114e59190611e27565b60405180910390a3505050565b60008373ffffffffffffffffffffffffffffffffffffffff163b11156116a3578273ffffffffffffffffffffffffffffffffffffffff1663150b7a02611536610ffa565b8685856040518563ffffffff1660e01b81526004016115589493929190612b72565b6020604051808303816000875af192505050801561159457506040513d601f19601f820116820180604052508101906115919190612bd3565b60015b611618573d80600081146115c4576040519150601f19603f3d011682016040523d82523d6000602084013e6115c9565b606091505b50600081510361161057836040517f64a0ae920000000000000000000000000000000000000000000000000000000081526004016116079190611f98565b60405180910390fd5b805181602001fd5b63150b7a0260e01b7bffffffffffffffffffffffffffffffffffffffffffffffffffffffff1916817bffffffffffffffffffffffffffffffffffffffffffffffffffffffff1916146116a157836040517f64a0ae920000000000000000000000000000000000000000000000000000000081526004016116989190611f98565b60405180910390fd5b505b50505050565b6060604051806060016040528060228152602001612c5960229139905090565b60606116d482610f35565b5060006116df6116a9565b905060008151116116ff576040518060200160405280600081525061172a565b8061170984611a62565b60405160200161171a929190612af9565b6040516020818303038152906040525b915050919050565b60007f01ffc9a7000000000000000000000000000000000000000000000000000000007bffffffffffffffffffffffffffffffffffffffffffffffffffffffff1916827bffffffffffffffffffffffffffffffffffffffffffffffffffffffff1916149050919050565b60006002600083815260200190815260200160002060009054906101000a900473ffffffffffffffffffffffffffffffffffffffff169050919050565b80806118125750600073ffffffffffffffffffffffffffffffffffffffff168273ffffffffffffffffffffffffffffffffffffffff1614155b1561194657600061182284610f35565b9050600073ffffffffffffffffffffffffffffffffffffffff168373ffffffffffffffffffffffffffffffffffffffff161415801561188d57508273ffffffffffffffffffffffffffffffffffffffff168173ffffffffffffffffffffffffffffffffffffffff1614155b80156118a0575061189e8184610dbf565b155b156118e257826040517fa9fbf51f0000000000000000000000000000000000000000000000000000000081526004016118d99190611f98565b60405180910390fd5b811561194457838573ffffffffffffffffffffffffffffffffffffffff168273ffffffffffffffffffffffffffffffffffffffff167f8c5be1e5ebec7d5bd14f71427d1e84f3dd0314c0f7b2291e5b200ac8c7c3b92560405160405180910390a45b505b836004600085815260200190815260200160002060006101000a81548173ffffffffffffffffffffffffffffffffffffffff021916908373ffffffffffffffffffffffffffffffffffffffff16021790555050505050565b6119a9838383611b30565b611a5d57600073ffffffffffffffffffffffffffffffffffffffff168373ffffffffffffffffffffffffffffffffffffffff1603611a1e57806040517f7e273289000000000000000000000000000000000000000000000000000000008152600401611a15919061202e565b60405180910390fd5b81816040517f177e802f000000000000000000000000000000000000000000000000000000008152600401611a54929190612c00565b60405180910390fd5b505050565b606060006001611a7184611bf1565b01905060008167ffffffffffffffff811115611a9057611a8f6120a6565b5b6040519080825280601f01601f191660200182016040528015611ac25781602001600182028036833780820191505090505b509050600082602001820190505b600115611b25578080600190039150507f3031323334353637383961626364656600000000000000000000000000000000600a86061a8153600a8581611b1957611b18612c29565b5b04945060008503611ad0575b819350505050919050565b60008073ffffffffffffffffffffffffffffffffffffffff168373ffffffffffffffffffffffffffffffffffffffff1614158015611be857508273ffffffffffffffffffffffffffffffffffffffff168473ffffffffffffffffffffffffffffffffffffffff161480611ba95750611ba88484610dbf565b5b80611be757508273ffffffffffffffffffffffffffffffffffffffff16611bcf83610fbd565b73ffffffffffffffffffffffffffffffffffffffff16145b5b90509392505050565b600080600090507a184f03e93ff9f4daa797ed6e38ed64bf6a1f0100000000000000008310611c4f577a184f03e93ff9f4daa797ed6e38ed64bf6a1f0100000000000000008381611c4557611c44612c29565b5b0492506040810190505b6d04ee2d6d415b85acef81000000008310611c8c576d04ee2d6d415b85acef81000000008381611c8257611c81612c29565b5b0492506020810190505b662386f26fc100008310611cbb57662386f26fc100008381611cb157611cb0612c29565b5b0492506010810190505b6305f5e1008310611ce4576305f5e1008381611cda57611cd9612c29565b5b0492506008810190505b6127108310611d09576127108381611cff57611cfe612c29565b5b0492506004810190505b60648310611d2c5760648381611d2257611d21612c29565b5b0492506002810190505b600a8310611d3b576001810190505b80915050919050565b6040518060a0016040528060608152602001606081526020016060815260200160608152602001606081525090565b6000604051905090565b600080fd5b600080fd5b60007fffffffff0000000000000000000000000000000000000000000000000000000082169050919050565b611dbc81611d87565b8114611dc757600080fd5b50565b600081359050611dd981611db3565b92915050565b600060208284031215611df557611df4611d7d565b5b6000611e0384828501611dca565b91505092915050565b60008115159050919050565b611e2181611e0c565b82525050565b6000602082019050611e3c6000830184611e18565b92915050565b600081519050919050565b600082825260208201905092915050565b60005b83811015611e7c578082015181840152602081019050611e61565b60008484015250505050565b6000601f19601f8301169050919050565b6000611ea482611e42565b611eae8185611e4d565b9350611ebe818560208601611e5e565b611ec781611e88565b840191505092915050565b60006020820190508181036000830152611eec8184611e99565b905092915050565b6000819050919050565b611f0781611ef4565b8114611f1257600080fd5b50565b600081359050611f2481611efe565b92915050565b600060208284031215611f4057611f3f611d7d565b5b6000611f4e84828501611f15565b91505092915050565b600073ffffffffffffffffffffffffffffffffffffffff82169050919050565b6000611f8282611f57565b9050919050565b611f9281611f77565b82525050565b6000602082019050611fad6000830184611f89565b92915050565b611fbc81611f77565b8114611fc757600080fd5b50565b600081359050611fd981611fb3565b92915050565b60008060408385031215611ff657611ff5611d7d565b5b600061200485828601611fca565b925050602061201585828601611f15565b9150509250929050565b61202881611ef4565b82525050565b6000602082019050612043600083018461201f565b92915050565b60008060006060848603121561206257612061611d7d565b5b600061207086828701611fca565b935050602061208186828701611fca565b925050604061209286828701611f15565b9150509250925092565b600080fd5b600080fd5b7f4e487b7100000000000000000000000000000000000000000000000000000000600052604160045260246000fd5b6120de82611e88565b810181811067ffffffffffffffff821117156120fd576120fc6120a6565b5b80604052505050565b6000612110611d73565b905061211c82826120d5565b919050565b600067ffffffffffffffff82111561213c5761213b6120a6565b5b61214582611e88565b9050602081019050919050565b82818337600083830152505050565b600061217461216f84612121565b612106565b9050828152602081018484840111156121905761218f6120a1565b5b61219b848285612152565b509392505050565b600082601f8301126121b8576121b761209c565b5b81356121c8848260208601612161565b91505092915050565b6000602082840312156121e7576121e6611d7d565b5b600082013567ffffffffffffffff81111561220557612204611d82565b5b612211848285016121a3565b91505092915050565b600082825260208201905092915050565b600061223682611e42565b612240818561221a565b9350612250818560208601611e5e565b61225981611e88565b840191505092915050565b600060a0830160008301518482036000860152612281828261222b565b9150506020830151848203602086015261229b828261222b565b915050604083015184820360408601526122b5828261222b565b915050606083015184820360608601526122cf828261222b565b915050608083015184820360808601526122e9828261222b565b9150508091505092915050565b600060208201905081810360008301526123108184612264565b905092915050565b60006020828403121561232e5761232d611d7d565b5b600061233c84828501611fca565b91505092915050565b600080600080600060a0868803121561236157612360611d7d565b5b600086013567ffffffffffffffff81111561237f5761237e611d82565b5b61238b888289016121a3565b955050602086013567ffffffffffffffff8111156123ac576123ab611d82565b5b6123b8888289016121a3565b945050604086013567ffffffffffffffff8111156123d9576123d8611d82565b5b6123e5888289016121a3565b935050606086013567ffffffffffffffff81111561240657612405611d82565b5b612412888289016121a3565b925050608086013567ffffffffffffffff81111561243357612432611d82565b5b61243f888289016121a3565b9150509295509295909350565b61245581611e0c565b811461246057600080fd5b50565b6000813590506124728161244c565b92915050565b6000806040838503121561248f5761248e611d7d565b5b600061249d85828601611fca565b92505060206124ae85828601612463565b9150509250929050565b600067ffffffffffffffff8211156124d3576124d26120a6565b5b6124dc82611e88565b9050602081019050919050565b60006124fc6124f7846124b8565b612106565b905082815260208101848484011115612518576125176120a1565b5b612523848285612152565b509392505050565b600082601f8301126125405761253f61209c565b5b81356125508482602086016124e9565b91505092915050565b6000806000806080858703121561257357612572611d7d565b5b600061258187828801611fca565b945050602061259287828801611fca565b93505060406125a387828801611f15565b925050606085013567ffffffffffffffff8111156125c4576125c3611d82565b5b6125d08782880161252b565b91505092959194509250565b600080604083850312156125f3576125f2611d7d565b5b600061260185828601611fca565b925050602061261285828601611fca565b9150509250929050565b7f4e487b7100000000000000000000000000000000000000000000000000000000600052602260045260246000fd5b6000600282049050600182168061266357607f821691505b6020821081036126765761267561261c565b5b50919050565b60006060820190506126916000830186611f89565b61269e602083018561201f565b6126ab6040830184611f89565b949350505050565b600081905092915050565b60006126c982611e42565b6126d381856126b3565b93506126e3818560208601611e5e565b80840191505092915050565b60006126fb82846126be565b915081905092915050565b7f4365727469666963617465206e6f7420666f756e640000000000000000000000600082015250565b600061273c601583611e4d565b915061274782612706565b602082019050919050565b6000602082019050818103600083015261276b8161272f565b9050919050565b7f4f6e6c79206f776e65722063616e2063616c6c20746869732066756e6374696f60008201527f6e00000000000000000000000000000000000000000000000000000000000000602082015250565b60006127ce602183611e4d565b91506127d982612772565b604082019050919050565b600060208201905081810360008301526127fd816127c1565b9050919050565b7f4e487b7100000000000000000000000000000000000000000000000000000000600052601160045260246000fd5b600061283e82611ef4565b91507fffffffffffffffffffffffffffffffffffffffffffffffffffffffffffffffff82036128705761286f612804565b5b600182019050919050565b60008190508160005260206000209050919050565b60006020601f8301049050919050565b600082821b905092915050565b6000600883026128dd7fffffffffffffffffffffffffffffffffffffffffffffffffffffffffffffffff826128a0565b6128e786836128a0565b95508019841693508086168417925050509392505050565b6000819050919050565b600061292461291f61291a84611ef4565b6128ff565b611ef4565b9050919050565b6000819050919050565b61293e83612909565b61295261294a8261292b565b8484546128ad565b825550505050565b600090565b61296761295a565b612972818484612935565b505050565b5b818110156129965761298b60008261295f565b600181019050612978565b5050565b601f8211156129db576129ac8161287b565b6129b584612890565b810160208510156129c4578190505b6129d86129d085612890565b830182612977565b50505b505050565b600082821c905092915050565b60006129fe600019846008026129e0565b1980831691505092915050565b6000612a1783836129ed565b9150826002028217905092915050565b612a3082611e42565b67ffffffffffffffff811115612a4957612a486120a6565b5b612a53825461264b565b612a5e82828561299a565b600060209050601f831160018114612a915760008415612a7f578287015190505b612a898582612a0b565b865550612af1565b601f198416612a9f8661287b565b60005b82811015612ac757848901518255600182019150602085019450602081019050612aa2565b86831015612ae45784890151612ae0601f8916826129ed565b8355505b6001600288020188555050505b505050505050565b6000612b0582856126be565b9150612b1182846126be565b91508190509392505050565b600081519050919050565b600082825260208201905092915050565b6000612b4482612b1d565b612b4e8185612b28565b9350612b5e818560208601611e5e565b612b6781611e88565b840191505092915050565b6000608082019050612b876000830187611f89565b612b946020830186611f89565b612ba1604083018561201f565b8181036060830152612bb38184612b39565b905095945050505050565b600081519050612bcd81611db3565b92915050565b600060208284031215612be957612be8611d7d565b5b6000612bf784828501612bbe565b91505092915050565b6000604082019050612c156000830185611f89565b612c22602083018461201f565b9392505050565b7f4e487b7100000000000000000000000000000000000000000000000000000000600052601260045260246000fdfe68747470733a2f2f676174657761792e70696e6174612e636c6f75642f697066732fa264697066735822122028d1dab0f4deaaa903f0ed3e15a238b0feb5aae104c4e3e7804917d50c9a122564736f6c63430008180033",
  "linkReferences": {},
  "deployedLinkReferences": {}
}